:020000040800F2
:10000000002800207D1100080D11000813110008C0
:10001000191100081F110008251100080000000038
:100020000000000000000000000000002B1100088C
:100030003711000800000000431100084F110008AC
:10004000C5110008C5110008C5110008C511000838
:10005000C5110008C5110008C5110008C511000828
:10006000C5110008C5110008C5110008C511000818
:10007000C5110008C5110008C5110008C511000808
:10008000C5110008C5110008C5110008C5110008F8
:10009000C5110008C5110008C5110008C5110008E8
:1000A000C5110008C5110008C5110008C5110008D8
:1000B0005D110008C511000800000000C51100080E
:1000C000C51100080000000000000000C511000874
:1000D00000000000C5110008C51100080000000064
:1000E000C5110008C5110008C51100080000000076
:1000F0000000000000000000000000000000000000
:0C01000000000000000000005FF808F1A3
:10010C0010B5054C237833B9044B13B10448AFF345
:10011C0000800123237010BD180000200000000097
:10012C00BC27000808B5034B1BB103490348AFF3C8
:10013C00008008BD000000001C000020BC27000847
:10014C0080B483B000AF7860094A7B6852F82330E2
:10015C00012B06D1064A7B68002142F823100123AB
:10016C0000E0002318460C37BD4680BC704700BF2A
:10017C003400002080B500AF914B1B680C2B00F0B5
:10018C00A5800C2B00F312810A2B02D00B2B4ED026
:10019C000CE18C4B1B68012B13D1192000F03EFF96
:1001AC00894B1B68002B07D1874B01221A6000F08A
:1001BC0059FB00F07BFB04E0834B00221A6000F03B
:1001CC0029FB0020FFF7BCFF0346012B0CD10120BB
:1001DC0000F008FF7A4B0B221A607C4B1B687C4AA0
:1001EC0013607C4B03221A600120FFF7A9FF034622
:1001FC00012B10D1784B1B680133774A1360744B79
:10020C001B680133724A1360734B1B68632B02DD4E
:10021C00714B02221A600220FFF792FF0346012B5A
:10022C0040F0C6806C4B1B686C4A1360C0E0654B99
:10023C001B68012B13D1192000F0F0FE624B1B68D8
:10024C00002B07D1604B01221A6000F017FB00F065
:10025C0039FB04E05C4B00221A6000F0DBFA002052
:10026C00FFF76EFF0346012B0CD1012000F0D6FEE8
:10027C00534B0C221A605A4B1B68554A1360554B52
:10028C0004221A600120FFF75BFF0346012B12D1F9
:10029C00544B1B680133534A13604D4B1B6801339D
:1002AC004B4A13604F4B1A684C4B1B689A4202DB4B
:1002BC004C4B01221A600220FFF742FF0346012B30
:1002CC0078D1484B1B68414A136073E03D4B1B6867
:1002DC00012B13D1192000F0A1FE3B4B1B68002B06
:1002EC0007D1394B01221A6000F0D4FA00F0F6FA6B
:1002FC0004E0354B00221A6000F08CFA0020FFF766
:10030C001FFF0346012B26D12D4B0A221A60334BBB
:10031C001A682E4B1B68D31A314A13602F4B1B687B
:10032C002B4A13602E4B1B682A4A136000F092FC78
:10033C002B4B1B68642202FB03F3184600F0FEFDF6
:10034C00642000F017FE012000F04CFE264B00222A
:10035C001A6000F0FFF90120FFF7F2FE0346012BB3
:10036C0012D1224B1B680133204A1360184B1B68B7
:10037C000133174A13601D4B1A68184B1B689A42BD
:10038C0002DB1A4B01221A600220FFF7D9FE03464A
:10039C00012B11D1154B1B68114A13600F4B1A68B6
:1003AC000F4B1B68D31A094A136005E000BF04E029
:1003BC0000BF02E000BF00E000BF00BF80BD00BF77
:1003CC006C000020900000204C0000200800002051
:1003DC006400002068000020400000200000002085
:1003EC000400002044000020600000204800002091
:1003FC0080B582B000AF78607B68092B00F28081F9
:10040C0001A252F823F000BF3D0400088504000847
:10041C00CD040008150500085D050008A5050008B9
:10042C00ED050008350600087D060008C506000825
:10043C0000220121C64801F0ABF900220221C44878
:10044C0001F0A6F900220421C14801F0A1F9002213
:10045C000821BF4801F09CF900221021BC4801F092
:10046C0097F900222021BA4801F092F9012240218B
:10047C00B74801F08DF967E101220121B44801F080
:10048C0087F900220221B24801F082F900220421EE
:10049C00AF4801F07DF901220821AD4801F078F94F
:1004AC0001221021AA4801F073F901222021A84849
:1004BC0001F06EF901224021A54801F069F943E1F0
:1004CC0000220121A24801F063F900220221A04878
:1004DC0001F05EF9012204219D4801F059F9002236
:1004EC0008219B4801F054F900221021984801F092
:1004FC004FF901222021964801F04AF900224021AF
:10050C00934801F045F91FE100220121904801F0C8
:10051C003FF9002202218E4801F03AF90022042111
:10052C008B4801F035F900220821894801F030F997
:10053C0001221021864801F02BF901222021844848
:10054C0001F026F900224021814801F021F9FBE05D
:10055C00012201217E4801F01BF9002202217C4876
:10056C0001F016F900220421794801F011F9012259
:10057C000821774801F00CF901221021744801F090
:10058C0007F900222021724801F002F900224021D3
:10059C006F4801F0FDF8D7E0002201216C4801F012
:1005AC00F7F8012202216A4801F0F2F80022042136
:1005BC00674801F0EDF800220821654801F0E8F8E1
:1005CC0001221021624801F0E3F80022202160484A
:1005DC0001F0DEF8002240215D4801F0D9F8B3E0CB
:1005EC00002201215A4801F0D3F801220221584877
:1005FC0001F0CEF800220421554801F0C9F8002280
:10060C000821534801F0C4F800221021504801F091
:10061C00BFF8002220214E4801F0BAF800224021F8
:10062C004B4801F0B5F88FE000220121484801F059
:10063C00AFF800220221464801F0AAF8002204215A
:10064C00434801F0A5F801220821414801F0A0F827
:10065C00012210213E4801F09BF8012220213C4848
:10066C0001F096F801224021394801F091F86BE035
:10067C0000220121364801F08BF800220221344877
:10068C0001F086F800220421314801F081F80022A3
:10069C0008212F4801F07CF8002210212C4801F091
:1006AC0077F8002220212A4801F072F8002240211C
:1006BC00274801F06DF847E000220121244801F0A1
:1006CC0067F800220221224801F062F8002204217E
:1006DC001F4801F05DF8002208211D4801F058F870
:1006EC00012210211A4801F053F800222021184849
:1006FC0001F04EF800224021154801F049F823E0A2
:10070C0001220121124801F043F801220221104874
:10071C0001F03EF8012204210D4801F039F80122C4
:10072C0008210B4801F034F801221021084801F08F
:10073C002FF801222021064801F02AF8012240213D
:10074C00034801F025F800BF00BF0837BD4680BD47
:10075C00000C014080B500AF01224FF400610B4842
:10076C0001F016F801224FF40061084801F010F86E
:10077C0001224FF40061054801F00AF801224FF400
:10078C000061024801F004F800BF80BD0008014080
:10079C0080B582B000AF7860FFF7DCFF1B4A7B6846
:1007AC0052F823301846FFF723FE7B68032B27D81B
:1007BC0001A252F823F000BFD5070008E307000898
:1007CC00F1070008FF07000800224FF400611048F1
:1007DC0000F0DEFF15E000224FF480510C4800F0D1
:1007EC00D7FF0EE000224FF40051094800F0D0FF73
:1007FC0007E000224FF48041054800F0C9FF00E0FB
:10080C0000BF00BF0837BD4680BD00BF50000020B0
:10081C000008014080B500AF01222021104800F0F3
:10082C00B7FF012240210E4800F0B2FF01228021C7
:10083C000B4800F0ADFF01224FF48071084800F026
:10084C00A7FF01224FF40071054800F0A1FF01221F
:10085C004FF48061024800F09BFF00BF80BD00BFD9
:10086C000008014080B500AF01222021024800F0B1
:10087C008FFF00BF80BD00BF0008014080B500AFF6
:10088C0001224021024800F083FF00BF80BD00BF61
:10089C000008014080B500AF01228021024800F021
:1008AC0077FF00BF80BD00BF0008014080B500AFDE
:1008BC0000224FF48071024800F06AFF00BF80BD37
:1008CC000008014080B500AF00224FF400710248CF
:1008DC0000F05EFF00BF80BD0008014080B500AF96
:1008EC0000224FF48061024800F052FF00BF80BD2F
:1008FC000008014080B500AF8F4B1B68042B00F241
:10090C00878101A252F823F0290900085B0900082D
:10091C00F9090008A70A0008710B0008FFF77AFF15
:10092C00854B01221A60854B1B68642202FB03F382
:10093C00184600F003FB642000F01CFB804B1B6886
:10094C00804A13607D4B1B687F4A136069E1FFF797
:10095C0089FFFFF7C3FF7D4B1B68012B14D164206B
:10096C0000F008FB774B1B68013B764A1360764B13
:10097C001B68013B744A1360734B1B68002B03DC30
:10098C00734B1B68704A1360724B1B68012B0AD1A6
:10099C006F4B1B68642202FB03F3184600F0CEFA7F
:1009AC00654B02221A600020FFF7CAFB0346012B9D
:1009BC0040F03081FFF72EFF5F4B0A221A60604B2C
:1009CC001B68654A1360624B1B68644A13605B4B7F
:1009DC001B68634A1360012000F020FB584B1B6816
:1009EC00584A1360584B02221A6013E1FFF73AFF82
:1009FC00FFF768FF554B1B68012B1CD1642000F0DE
:100A0C00B9FA504B1B68013B4E4A13604E4B1B68A6
:100A1C00013B4D4A13604B4B1B68002B03DC474BCF
:100A2C001B68484A1360484B1B68002B03DC444B83
:100A3C001B68454A1360474B1B68012B0AD13F4B7F
:100A4C001B68642202FB03F3184600F077FA3A4B5A
:100A5C0003221A600020FFF773FB0346012B40F0C2
:100A6C00DB80FFF7D7FE344B0B221A60344B1B682C
:100A7C00394A1360364B1B68384A13602F4B1B687E
:100A8C00374A1360012000F0C9FA2D4B1B682D4A20
:100A9C0013602D4B02221A60BEE0FFF7FBFEFFF73E
:100AAC0005FF2A4B1B68012B14D1642000F062FA5D
:100ABC00244B1B68013B234A1360224B1B68002B01
:100ACC0003DC234B1B681F4A13601F4B1B68013B45
:100ADC001D4A13601F4B1B68012B0AD11C4B1B6852
:100AEC00642202FB03F3184600F028FA124B04228E
:100AFC001A600020FFF724FB0346012B40F08E8088
:100B0C00FFF788FE0C4B0C221A600D4B1B68124A27
:100B1C0013600F4B1B68114A1360084B1B68104A7B
:100B2C001360012000F07AFA054B1B68054A13602C
:100B3C00054B02221A6071E06C00002004000020BA
:100B4C000000002064000020680000207C000020D1
:100B5C000800002074000020400000204400002009
:100B6C0048000020FFF78AFEFFF7A0FE2E4B1B6803
:100B7C00012B1CD1642000F0FDF92C4B1B68013BB0
:100B8C002A4A1360294B1B68002B03DC284B1B687B
:100B9C00264A1360274B1B68013B264A1360254BE2
:100BAC001B68002B03DC244B1B68224A1360234B6D
:100BBC001B68012B0AD1204B1B68642202FB03F338
:100BCC00184600F0BBF91E4B01221A600020FFF7FB
:100BDC00B7FA0346012B23D1FFF71CFE184B012259
:100BEC001A60134B1B68174A1360134B1B68164A89
:100BFC001360164B1B68164A1360012000F00EFAA6
:100C0C000B4B1B68094A13600A4B02221A6007E05F
:100C1C0000BF06E000BF04E000BF02E000BF00E040
:100C2C0000BF00BF80BD00BF7C000020640000201E
:100C3C000000002068000020040000207400002048
:100C4C006C0000204000002048000020080000201C
:100C5C004400002080B400AF1A4B1B681A4A82FB78
:100C6C0003129210DB17D31A184A1360154B19682C
:100C7C00154B83FB01239A10CB17D21A13469B00FA
:100C8C0013445B00CA1A114B5A60114B1B680E4A75
:100C9C0082FB03129210DB17D31A0C4A93600C4B95
:100CAC001968094B83FB01239A10CB17D21A1346F0
:100CBC009B0013445B00CA1A044BDA6000BFBD46AC
:100CCC0080BC704764000020676666665000002098
:100CDC006800002080B500AF00F070FA00F03EF81C
:100CEC0000F0C4F800F076F8174801F095F9174BAE
:100CFC0000221A60012000F059F9012000F072F96D
:100D0C00134B1B68012B04D10A2000F04FF9FFF79D
:100D1C00A1FF104B1B68012B11D1192000F062F9B7
:100D2C000D4B1B685A1C0C490A601846FFF730FD26
:100D3C00094B1B68032B02DD074B00221A60FFF7DF
:100D4C00D9FDFFF717FADBE7940000206C000020B8
:100D5C0084000020880000206000002080B590B046
:100D6C0000AF07F1180328220021184601F018FDE6
:100D7C003B1D00221A605A609A60DA601A610223E5
:100D8C00BB610123BB621023FB6200237B6307F171
:100D9C001803184600F014FD0346002B01D000F098
:100DAC00C7F80F237B600023BB600023FB6000238C
:100DBC003B6100237B613B1D0021184600F080FF46
:100DCC000346002B01D000F0B3F800BF4037BD46FE
:100DDC0080BD000080B586B000AF07F1080300228B
:100DEC001A605A609A60DA603B4600221A605A60B8
:100DFC001D4B4FF080421A601B4B41F63F725A60FC
:100E0C00194B00229A60184B0922DA60164B00220B
:100E1C001A61154B00229A61134801F0ADF8034694
:100E2C00002B01D000F084F84FF48053BB6007F125
:100E3C00080319460C4801F043FA0346002B01D075
:100E4C0000F076F800233B6000237B603B4619469C
:100E5C00054801F017FC0346002B01D000F068F8A0
:100E6C0000BF1837BD4680BD9400002080B586B009
:100E7C0000AF07F1080300221A605A609A60DA602A
:100E8C00284B9B69274A43F004039361254B9B69CC
:100E9C0003F004037B607B68224B9B69214A43F07F
:100EAC00080393611F4B9B6903F008033B603B688D
:100EBC00002247F6E0711C4800F06AFC00227F21FA
:100ECC001A4800F065FC47F6E073BB600123FB6039
:100EDC0000233B6102237B6107F10803194612488A
:100EEC0000F0DCFA7F23BB600123FB6000233B6135
:100EFC0002237B6107F1080319460C4800F0CEFA77
:100F0C004FF4E063BB600023FB6001233B6107F1FE
:100F1C0008031946054800F0C1FA00BF1837BD4652
:100F2C0080BD00BF0010024000080140000C0140D1
:100F3C0080B400AF72B600BFFEE7000080B483B08F
:100F4C0000AF78607B68084A82FB03129210DB17B3
:100F5C00D31A064A1360064B00221A6000BF0C37E6
:100F6C00BD4680BC704700BF676666667000002097
:100F7C007400002080B483B000AF78607B68084AAE
:100F8C0082FB03129210DB17D31A064A1360064B2E
:100F9C0000221A6000BF0C37BD4680BC704700BFF2
:100FAC0067666666780000207C00002080B483B001
:100FBC0000AF78607B68084A82FB03129210DB1743
:100FCC00D31A064A1360064B00221A6000BF0C3776
:100FDC00BD4680BC704700BF676666668000002017
:100FEC008400002080B483B000AF78607B68084A2E
:100FFC0082FB03129210DB17D31A064A1360064BBE
:10100C0000221A6000BF0C37BD4680BC704700BF81
:10101C0067666666800000208400002080B483B080
:10102C0000AF78607B68084A82FB03129210DB17D2
:10103C00D31A064A1360064B00221A6000BF0C3705
:10104C00BD4680BC704700BF676666668C0000209A
:10105C009000002080B485B000AF154B9B69144AFA
:10106C0043F001039361124B9B6903F00103BB60D6
:10107C00BB680F4BDB690E4A43F08053D3610C4BBA
:10108C00DB6903F080537B607B680A4B5B68FB6019
:10109C00FB6823F0E063FB60FB6843F08063FB605C
:1010AC00044AFB68536000BF1437BD4680BC7047D0
:1010BC00001002400000014080B584B000AF7860A1
:1010CC007B681B68B3F1804F13D10C4BDB690B4A67
:1010DC0043F00103D361094BDB6903F00103FB60AF
:1010EC00FB68002200211C2000F0A1F91C2000F05C
:1010FC00BAF900BF1037BD4680BD00BF00100240DA
:10110C0080B400AFFEE780B400AFFEE780B400AF60
:10111C00FEE780B400AFFEE780B400AFFEE780B41A
:10112C0000AF00BFBD4680BC704780B400AF00BFAD
:10113C00BD4680BC704780B400AF00BFBD4680BCCC
:10114C00704780B500AF00F07FF800BF80BD000095
:10115C0080B500AF024800F0ABFF00BF80BD00BF00
:10116C009400002080B400AF00BFBD4680BC704727
:10117C00FFF7F8FF0B480C490C4A002302E0D45847
:10118C00C4500433C4188C42F9D3094A094C0023C7
:10119C0001E013600432A242FBD301F0DDFAFFF749
:1011AC0099FD70470000002018000020002800085E
:1011BC0018000020E0000020FEE7000080B500AF22
:1011CC00084B1B68074A43F010031360032000F020
:1011DC0023F90F2000F008F8FFF73CFF0023184616
:1011EC0080BD00BF0020024080B582B000AF7860A7
:1011FC00124B1A68124B1B7819464FF47A73B3FBD7
:10120C00F1F3B2FBF3F3184600F03BF90346002B65
:10121C0001D001230EE07B680F2B0AD800227968DD
:10122C004FF0FF3000F003F9064A7B68136000238F
:10123C0000E0012318460837BD4680BD0C00002095
:10124C00140000201000002080B400AF054B1B7868
:10125C001A46054B1B681344034A136000BFBD4676
:10126C0080BC704714000020DC00002080B400AF6C
:10127C00024B1B681846BD4680BC7047DC00002042
:10128C0080B485B000AF78607B6803F00703FB6027
:10129C000C4BDB68BB60BA684FF6FF031340BB60B6
:1012AC00FB681A02BB68134343F0BF6343F400337B
:1012BC00BB60044ABB68D36000BF1437BD4680BC1A
:1012CC00704700BF00ED00E080B400AF044BDB685A
:1012DC001B0A03F007031846BD4680BC704700BFCD
:1012EC0000ED00E080B483B000AF0346FB7197F9CA
:1012FC000730002B0BDBFB7903F01F02064997F933
:10130C0007305B09012000FA02F241F8232000BFEC
:10131C000C37BD4680BC704700E100E080B483B060
:10132C0000AF03463960FB7197F90730002B0ADBDD
:10133C003B68DAB20C4997F907301201D2B20B4470
:10134C0083F800230AE03B68DAB20849FB7903F022
:10135C000F03043B1201D2B20B441A7600BF0C37B8
:10136C00BD4680BC704700BF00E100E000ED00E02E
:10137C0080B489B000AFF860B9607A60FB6803F0A4
:10138C000703FB61FB69C3F10703042B28BF04238C
:10139C00BB61FB690433062B02D9FB69033B00E0FC
:1013AC0000237B614FF0FF32BB6902FA03F3DA438F
:1013BC00BB681A407B699A404FF0FF317B6901FA98
:1013CC0003F3D9437B680B40134318462437BD46BF
:1013DC0080BC704780B582B000AF78607B68013B01
:1013EC00B3F1807F01D301230FE00A4A7B68013BF4
:1013FC0053600F214FF0FF30FFF790FF054B002299
:10140C009A60044B07221A60002318460837BD4621
:10141C0080BD00BF10E000E080B582B000AF786006
:10142C007868FFF72DFF00BF0837BD4680BD80B53B
:10143C0086B000AF0346B9607A60FB7300237B6112
:10144C00FFF742FF78617A68B9687869FFF790FF17
:10145C00024697F90F3011461846FFF75FFF00BFA1
:10146C001837BD4680BD80B582B000AF0346FB7116
:10147C0097F907301846FFF735FF00BF0837BD4610
:10148C0080BD80B582B000AF78607868FFF7A2FFAE
:10149C00034618460837BD4680BD000080B48BB0AB
:1014AC0000AF7860396000237B6200233B6248E127
:1014BC0001227B6A02FA03F3FB613B681B68FA6941
:1014CC001340BB61BA69FB699A4240F037813B68B3
:1014DC005B68A34A93425ED0A14A934275D8A14A55
:1014EC00934258D09F4A93426FD89F4A934252D00E
:1014FC009D4A934269D89D4A93424CD09B4A934251
:10150C0063D89B4A934246D0994A93425DD8122B9A
:10151C002AD8122B59D801A252F823F0A31500088F
:10152C007D1500088F150008D1150008D715000887
:10153C00D7150008D7150008D7150008D7150008CF
:10154C00D7150008D7150008D7150008D7150008BF
:10155C00D7150008D7150008D7150008D7150008AF
:10156C008515000899150008824A934213D02CE087
:10157C003B68DB683B6229E03B68DB6804333B6219
:10158C0024E03B68DB6808333B621FE03B68DB68A8
:10159C000C333B621AE03B689B68002B02D104239E
:1015AC003B6213E03B689B68012B05D108233B622F
:1015BC007B68FA691A6109E008233B627B68FA6967
:1015CC005A6103E000233B6200E000BFBB69FF2BC4
:1015DC0001D87B6801E07B6804337B61BB69FF2B1E
:1015EC0002D87B6A9B0002E07B6A083B9B003B6154
:1015FC007B691A680F213B6901FA03F3DB431A403C
:10160C00396A3B6901FA03F31A437B691A603B6838
:10161C005B6803F08053002B00F09080564B9B6965
:10162C00554A43F001039361534B9B6903F001034B
:10163C00BB60BB68514A7B6A9B08023352F823306B
:10164C00FB607B6A03F003039B000F2202FA03F397
:10165C00DB43FA681340FB607B68494A93420DD028
:10166C007B68484A934207D07B68474A934201D132
:10167C00022304E0032302E0012300E000237A6A42
:10168C0002F0030292009340FA681343FB603B495B
:10169C007B6A9B080233FA6841F823203B685B683D
:1016AC0003F48013002B06D0384B9A683749BB697A
:1016BC0013438B6006E0354B9A68BB69DB433349B7
:1016CC0013408B603B685B6803F40013002B06D05F
:1016DC002E4BDA682D49BB691343CB6006E02B4BCC
:1016EC00DA68BB69DB4329491340CB603B685B6814
:1016FC0003F40033002B06D0244B5A682349BB69F2
:10170C0013434B6006E0214B5A68BB69DB431F490E
:10171C0013404B603B685B6803F48033002B06D0AE
:10172C001A4B1A681949BB6913430B6006E0174B37
:10173C001A68BB69DB43154913400B607B6A0133A4
:10174C007B623B681A687B6A22FA03F3002B7FF4F6
:10175C00AFAE00BF00BF2C37BD4680BC704700BF8A
:10176C000000321000003110000022100000211087
:10177C000000121000001110001002400000014087
:10178C0000080140000C0140001001400004014021
:10179C0080B483B000AF78600B467B8013467B70BF
:1017AC007B78002B03D07A887B681A6103E07B88F6
:1017BC001A047B681A6100BF0C37BD4680BC7047A9
:1017CC0080B586B000AF78607B68002B01D1012317
:1017DC006CE27B681B6803F00103002B00F0878030
:1017EC00924B5B6803F00C03042B0CD08F4B5B68A3
:1017FC0003F00C03082B12D18C4B5B6803F4803381
:10180C00B3F5803F0BD1894B1B6803F40033002BDD
:10181C006CD07B685B68002B68D1012346E27B6847
:10182C005B68B3F5803F06D1804B1B687F4A43F45D
:10183C00803313602EE07B685B68002B0CD17B4BF4
:10184C001B687A4A23F480331360784B1B68774A01
:10185C0023F4802313601DE07B685B68B3F5A02F35
:10186C000CD1724B1B68714A43F4802313606F4B8D
:10187C001B686E4A43F4803313600BE06B4B1B68A0
:10188C006A4A23F480331360684B1B68674A23F45D
:10189C00802313607B685B68002B13D0FFF7E6FC9A
:1018AC00386108E0FFF7E2FC02463B69D31A642B6F
:1018BC0001D90323FAE15D4B1B6803F40033002BC1
:1018CC00F0D014E0FFF7D2FC386108E0FFF7CEFC53
:1018DC0002463B69D31A642B01D90323E6E1534B2F
:1018EC001B6803F40033002BF0D100E000BF7B68D1
:1018FC001B6803F00203002B63D04C4B5B6803F0B6
:10190C000C03002B0BD0494B5B6803F00C03082B2A
:10191C001CD1464B5B6803F48033002B16D1434B30
:10192C001B6803F00203002B05D07B681B69012B9D
:10193C0001D00123BAE13D4B1B6823F0F8027B6810
:10194C005B69DB00394913430B603AE07B681B6928
:10195C00002B20D0364B01221A60FFF787FC386130
:10196C0008E0FFF783FC02463B69D31A022B01D92E
:10197C0003239BE12D4B1B6803F00203002BF0D0DB
:10198C002A4B1B6823F0F8027B685B69DB00274954
:10199C0013430B6015E0264B00221A60FFF766FC20
:1019AC00386108E0FFF762FC02463B69D31A022B50
:1019BC0001D903237AE11D4B1B6803F00203002BB2
:1019CC00F0D17B681B6803F00803002B3AD07B68CE
:1019DC009B69002B19D0174B01221A60FFF746FCAC
:1019EC00386108E0FFF742FC02463B69D31A022B30
:1019FC0001D903235AE10D4B5B6A03F00203002B60
:101A0C00F0D0012000F09AFA1CE00A4B00221A6078
:101A1C00FFF72CFC38610FE0FFF728FC02463B690E
:101A2C00D31A022B08D9032340E100BF0010024057
:101A3C0000004242800442429E4B5B6A03F0020368
:101A4C00002BE9D17B681B6803F00403002B00F02A
:101A5C00A6800023FB75974BDB6903F08053002BAA
:101A6C000DD1944BDB69934A43F08053D361914B76
:101A7C00DB6903F08053BB60BB680123FB758E4BA5
:101A8C001B6803F48073002B18D18B4B1B688A4A9C
:101A9C0043F480731360FFF7E9FB386108E0FFF74C
:101AAC00E5FB02463B69D31A642B01D90323FDE005
:101ABC00814B1B6803F48073002BF0D07B68DB68D0
:101ACC00012B06D17B4B1B6A7A4A43F0010313624C
:101ADC002DE07B68DB68002B0CD1764B1B6A754ABA
:101AEC0023F001031362734B1B6A724A23F0040345
:101AFC0013621CE07B68DB68052B0CD16D4B1B6AF9
:101B0C006C4A43F0040313626A4B1B6A694A43F044
:101B1C00010313620BE0674B1B6A664A23F0010357
:101B2C001362644B1B6A634A23F0040313627B68E1
:101B3C00DB68002B15D0FFF799FB38610AE0FFF743
:101B4C0095FB02463B69D31A41F28832934201D984
:101B5C000323ABE0574B1B6A03F00203002BEED0C0
:101B6C0014E0FFF783FB38610AE0FFF77FFB0246C6
:101B7C003B69D31A41F28832934201D9032395E091
:101B8C004C4B1B6A03F00203002BEED1FB7D012BA7
:101B9C0005D1484BDB69474A23F08053D3617B68FE
:101BAC00DB69002B00F08180424B5B6803F00C0377
:101BBC00082B61D07B68DB69022B46D13F4B00229E
:101BCC001A60FFF753FB386108E0FFF74FFB024642
:101BDC003B69D31A022B01D9032367E0354B1B68F1
:101BEC0003F00073002BF0D17B681B6AB3F5803FC8
:101BFC0008D1304B5B6823F400327B689B682D491D
:101C0C0013434B602B4B5B6823F474127B68196A8B
:101C1C007B685B6A0B43274913434B60274B0122BC
:101C2C001A60FFF723FB386108E0FFF71FFB024641
:101C3C003B69D31A022B01D9032337E01D4B1B68D8
:101C4C0003F00073002BF0D02FE01C4B00221A6025
:101C5C00FFF70CFB386108E0FFF708FB02463B6915
:101C6C00D31A022B01D9032320E0124B1B6803F07B
:101C7C000073002BF0D118E07B68DB69012B01D1DC
:101C8C00012313E00B4B5B68FB60FB6803F48032B1
:101C9C007B681B6A9A4206D1FB6803F470127B685E
:101CAC005B6A9A4201D0012300E0002318461837E2
:101CBC00BD4680BD001002400070004060004242F2
:101CCC0080B584B000AF786039607B68002B01D19F
:101CDC000123D0E06A4B1B6803F007033A689A4271
:101CEC0010D9674B1B6823F0070265493B68134307
:101CFC000B60634B1B6803F007033A689A4201D0F0
:101D0C000123B8E07B681B6803F00203002B20D092
:101D1C007B681B6803F00403002B05D0594B5B68F0
:101D2C00584A43F4E06353607B681B6803F0080374
:101D3C00002B05D0534B5B68524A43F460535360FD
:101D4C00504B5B6823F0F0027B689B684D49134352
:101D5C004B607B681B6803F00103002B40D07B6851
:101D6C005B68012B07D1474B1B6803F40033002B36
:101D7C0015D101237FE07B685B68022B07D1414BB7
:101D8C001B6803F00073002B09D1012373E03D4B5A
:101D9C001B6803F00203002B01D101236BE0394BCC
:101DAC005B6823F003027B685B68364913434B6026
:101DBC00FFF75CFAF8600AE0FFF758FA0246FB6896
:101DCC00D31A41F28832934201D9032353E02D4BAD
:101DDC005B6803F00C027B685B689B009A42EBD15A
:101DEC00274B1B6803F007033A689A4210D2244B26
:101DFC001B6823F0070222493B6813430B60204BFE
:101E0C001B6803F007033A689A4201D0012332E0C1
:101E1C007B681B6803F00403002B08D0194B5B682C
:101E2C0023F4E0627B68DB68164913434B607B68E4
:101E3C001B6803F00803002B09D0124B5B6823F4DA
:101E4C0060527B681B69DB000E4913434B6000F04A
:101E5C0021F802460B4B5B681B0903F00F030A4980
:101E6C00CB5C22FA03F3094A1360094B1B68184632
:101E7C00FFF7BAF9002318461037BD4680BD00BFE6
:101E8C000020024000100240D42700080C00002063
:101E9C001000002080B487B000AF0023FB6000234B
:101EAC00BB6000237B6100237B6000233B611E4BE6
:101EBC005B68FB60FB6803F00C03042B02D0082B5F
:101ECC0003D027E0194B3B6127E0FB689B0C03F028
:101EDC000F03174AD35C7B60FB6803F48033002B41
:101EEC0010D0114B5B685B0C03F00103114AD35CFF
:101EFC00BB607B680D4A02FB03F2BB68B2FBF3F3D9
:101F0C007B6104E07B680C4A02FB03F37B617B6919
:101F1C003B6102E0054B3B6100BF3B6918461C3737
:101F2C00BD4680BC704700BF0010024000127A0012
:101F3C00E4270008F427000800093D0080B485B0B0
:101F4C0000AF78600A4B1B680A4AA2FB03235B0AAA
:101F5C007A6802FB03F3FB6000BFFB685A1EFA6051
:101F6C00002BF9D100BF00BF1437BD4680BC7047B1
:101F7C000C000020D34D621080B582B000AF7860A9
:101F8C007B68002B01D1012341E07B6893F83D3045
:101F9C00DBB2002B06D17B68002283F83C207868EA
:101FAC00FFF78AF87B68022283F83D207B681A6869
:101FBC007B6804331946104600F076FA7B680122E0
:101FCC0083F846207B68012283F83E207B6801223F
:101FDC0083F83F207B68012283F840207B68012234
:101FEC0083F841207B68012283F842207B68012220
:101FFC0083F843207B68012283F844207B6801220C
:10200C0083F845207B68012283F83D200023184685
:10201C000837BD4680BD000080B485B000AF786045
:10202C007B6893F83D30DBB2012B01D0012335E006
:10203C007B68022283F83D207B681B68DA687B682A
:10204C001B6842F00102DA607B681B68164A9342F7
:10205C0009D07B681B68B3F1804F04D07B681B6888
:10206C00124A934211D17B681B689B6803F00703EB
:10207C00FB60FB68062B10D07B681B681A687B68BA
:10208C001B6842F001021A6007E07B681B681A6843
:10209C007B681B6842F001021A6000231846143753
:1020AC00BD4680BC704700BF002C014000040040BE
:1020BC0080B582B000AF78607B681B681B6903F049
:1020CC000203022B22D17B681B68DB6803F002033E
:1020DC00022B1BD17B681B686FF002021A617B68B4
:1020EC0001221A777B681B689B6903F00303002BA2
:1020FC0003D0786800F0BDF905E0786800F0B0F91D
:10210C00786800F0BFF97B6800221A777B681B683F
:10211C001B6903F00403042B22D17B681B68DB686A
:10212C0003F00403042B1BD17B681B686FF00402C3
:10213C001A617B6802221A777B681B689B6903F41F
:10214C004073002B03D0786800F093F905E07868B1
:10215C0000F086F9786800F095F97B6800221A7710
:10216C007B681B681B6903F00803082B22D17B6872
:10217C001B68DB6803F00803082B1BD17B681B680A
:10218C006FF008021A617B6804221A777B681B685F
:10219C00DB6903F00303002B03D0786800F069F9C6
:1021AC0005E0786800F05CF9786800F06BF97B6802
:1021BC0000221A777B681B681B6903F01003102B35
:1021CC0022D17B681B68DB6803F01003102B1BD13A
:1021DC007B681B686FF010021A617B6808221A7703
:1021EC007B681B68DB6903F44073002B03D07868B1
:1021FC0000F03FF905E0786800F032F9786800F0FB
:10220C0041F97B6800221A777B681B681B6903F015
:10221C000103012B0ED17B681B68DB6803F0010303
:10222C00012B07D17B681B686FF001021A6178687B
:10223C0000F00DF97B681B681B6903F08003802B91
:10224C000ED17B681B68DB6803F08003802B07D101
:10225C007B681B686FF080021A61786800F073FA73
:10226C007B681B681B6903F04003402B0ED17B6815
:10227C001B68DB6803F04003402B07D17B681B68AD
:10228C006FF040021A61786800F005F97B681B68F2
:10229C001B6903F02003202B0ED17B681B68DB68C5
:1022AC0003F02003202B07D17B681B686FF0200202
:1022BC001A61786800F03EFA00BF0837BD4680BD51
:1022CC0080B584B000AF786039600023FB737B6805
:1022DC0093F83C30012B01D10223B4E07B6801223E
:1022EC0083F83C207B68022283F83D207B681B68C6
:1022FC009B68BB60BB6823F07703BB60BB6823F4AF
:10230C007F43BB607B681B68BA689A603B681B683C
:10231C00B3F5005F3ED0B3F5005F00F28780B3F5F4
:10232C00805F00F08680B3F5805F7FD8702B1AD069
:10233C00702B7BD8602B50D0602B77D8502B3CD097
:10234C00502B73D8402B58D0402B6FD8302B64D0E7
:10235C00302B6BD8202B60D0202B67D8002B5CD077
:10236C00102B5AD062E07B6818683B6899683B6810
:10237C005A683B68DB6800F066F97B681B689B68F1
:10238C00BB60BB6843F07703BB607B681B68BA68B3
:10239C009A604FE07B6818683B6899683B685A689C
:1023AC003B68DB6800F04FF97B681B689A687B68B8
:1023BC001B6842F480429A603CE07B6818683B687A
:1023CC0059683B68DB681A4600F0C6F87B681B68E6
:1023DC005021184600F01DF92CE07B6818683B680A
:1023EC0059683B68DB681A4600F0E4F87B681B68A8
:1023FC006021184600F00DF91CE07B6818683B68FA
:10240C0059683B68DB681A4600F0A6F87B681B68C5
:10241C004021184600F0FDF80CE07B681A683B6818
:10242C001B681946104600F0F4F803E00123FB7317
:10243C0000E000BF7B68012283F83D207B6800220E
:10244C0083F83C20FB7B18461037BD4680BD80B41A
:10245C0083B000AF786000BF0C37BD4680BC7047BE
:10246C0080B483B000AF786000BF0C37BD4680BC31
:10247C00704780B483B000AF786000BF0C37BD46A6
:10248C0080BC704780B483B000AF786000BF0C375D
:10249C00BD4680BC704780B483B000AF786000BF8D
:1024AC000C37BD4680BC704780B485B000AF7860F7
:1024BC0039607B681B68FB607B68254A934207D0B8
:1024CC007B68B3F1804F03D07B68224A934208D1DA
:1024DC00FB6823F07003FB603B685B68FA6813438E
:1024EC00FB607B681A4A934207D07B68B3F1804F3C
:1024FC0003D07B68174A934208D1FB6823F44073DE
:10250C00FB603B68DB68FA681343FB60FB6823F0F5
:10251C0080023B685B691343FB607B68FA681A6056
:10252C003B689A687B68DA623B681A687B689A62D7
:10253C007B68074A934203D13B681A697B681A632C
:10254C007B6801225A6100BF1437BD4680BC7047BE
:10255C00002C01400004004080B487B000AFF8604C
:10256C00B9607A60FB681B6A7B61FB681B6A23F0AD
:10257C000102FB681A62FB689B693B613B6923F0B3
:10258C00F0033B617B681B013A6913433B617B6938
:10259C0023F00A037B617A69BB6813437B61FB6898
:1025AC003A699A61FB687A691A6200BF1C37BD46AA
:1025BC0080BC704780B487B000AFF860B9607A60B7
:1025CC00FB681B6A7B61FB681B6A23F01002FB68CB
:1025DC001A62FB689B693B613B6923F470433B6166
:1025EC007B681B033A6913433B617B6923F0A003AF
:1025FC007B61BB681B017A6913437B61FB683A6999
:10260C009A61FB687A691A6200BF1C37BD4680BCB0
:10261C00704780B485B000AF786039607B689B6888
:10262C00FB60FB6823F07003FB603A68FB681343A4
:10263C0043F00703FB607B68FA689A6000BF1437AD
:10264C00BD4680BC704780B487B000AFF860B960FD
:10265C007A603B60FB689B687B617B6923F47F43FA
:10266C007B613B681A027B681A43BB6813437A6927
:10267C0013437B61FB687A699A6000BF1C37BD46C7
:10268C0080BC704780B485B000AF786039607B68DF
:10269C0093F83C30012B01D1022341E07B680122ED
:1026AC0083F83C207B68022283F83D207B681B6802
:1026BC005B68FB607B681B689B68BB60FB6823F0F6
:1026CC007003FB603B681B68FA681343FB607B6814
:1026DC001B68FA685A607B681B68144A934209D0DD
:1026EC007B681B68B3F1804F04D07B681B68104A71
:1026FC0093420CD1BB6823F08003BB603B685B68E2
:10270C00BA681343BB607B681B68BA689A607B68C5
:10271C00012283F83D207B68002283F83C200023B3
:10272C0018461437BD4680BC704700BF002C0140D2
:10273C000004004080B483B000AF786000BF0C3759
:10274C00BD4680BC704780B483B000AF786000BFDA
:10275C000C37BD4680BC704770B500260C4D0D4C37
:10276C00641BA410A64209D100F022F800260A4DE1
:10277C000A4C641BA410A64205D170BD55F8043B4D
:10278C0098470136EEE755F8043B98470136F2E7D7
:10279C00F8270008F8270008F8270008FC2700088D
:1027AC0003460244934200D1704703F8011BF9E73A
:1027BC00F8B500BFF8BC08BC9E467047F8B500BF22
:0827CC00F8BC08BC9E467047F2
:1027D40000000000000000000102030406070809CD
:1027E40002030405060708090A0B0C0D0E0F10104E
:0427F40001020000DE
:0427F80031010008A3
:0427FC000D010008C3
:102800000500000002000000030000000024F400A6
:082810001000000001000000AF
:040000050800117D61
:00000001FF
